:100000000C9406050C9493170C946C170C944517DC
:100010000C94BA170C94BA170C94BA170C94BA171C
:100020000C942E050C942E050C942E050C942E0584
:100030000C942E050C942E050C942E050C942E0574
:100040000C942E050C942E050C94FB160C942E0586
:100050000C94AC150C9486150C942E050C942E055E
:100060000C942E050C942E050C944A180C942E0515
:100070000C942E050C942E050C942E0598363F35C5
:100080009D379D37BB37F23867393F35833A893A18
:1000900067398F3A993BB23C1E3D893AF238243D8C
:1000A00059055905E90B5806EF06E90B8607F607CF
:1000B000EF061009E90B470A870BF6075806EE0A08
:1000C000084AD73B3BCE016E84BCBFFDC12F3D6CBF
:1000D00074319ABD56833DDA3D00C77F11BED9E425
:1000E000BB4C3E916BAAAABE000000803F0001B24B
:1000F00002FFFF0190040923A135016A02060001F5
:1001000060080000000000000000006004400000E3
:1001100000016202000000600400400000037B0355
:100120004CCD6C03AB0336567600680402CB47A275
:1001300002180400058BC1010C0400000000037FBD
:10014000060CC92C979797038903264666006C0214
:1001500020000240040000000002440400000000EF
:1001600002480400000000024C040000000002509D
:1001700004000000000254040000000002580400C3
:10018000000000025C040000000002BC040000004B
:100190000001EC0400004000037F060CC92C979777
:1001A000970402030D355D040904872D353D00A336
:1001B000010000000001078601FE074105F120282B
:1001C0003038077E01300746019A074704F128308E
:1001D00038076C04F12830380216020001FB0000D9
:1001E0003E000B0036000100020003000000650025
:1001F00054FFEF0000FA80000B12820001000200A1
:1002000000000000000000000000000000002800C6
:1002100000FFFF4581FFFFFA7200000000000003AD
:10022000E80000000100017FFFFFFE8001001B00CD
:1002300000000000000000000000000000003E037D
:10024000304000000002CAE3093E800000200000A8
:100250000000000000400000006000000041FF00BE
:100260000000000B2A0000165500002182FD8726A1
:1002700050FD800000001F0000000580000000000D
:100280000000010000000200000003000040000028
:10029000000000046F0002653200005EC0400000F4
:1002A00000000000000000000000000000FB8C6F58
:1002B0005DFD5D08D9007C733B006C12CC320013ED
:1002C0009D3200D0D632000800400001F4FFE680E5
:1002D00079020000000000D0D600002710FB0000CB
:1002E00000400000000000000000000000000000CE
:1002F000010000000000000100010000000000FA01
:1003000036FFBC308E0005FBF0FFD95BC8FFD09AEA
:10031000BE000010A9FFF41EB200CEBBF700000023
:100320000100000004000200020200000CFFC28075
:10033000000001800000CF800040000000000000AD
:100340000100000000000006000000001400000092
:10035000000000000000000000000000000000009D
:10036000000000000000000000000000000000008D
:10037000000000000000000000000000000000007D
:1003800000033F68B6793528BCC67ED16C8000007A
:1003900000400000000000B26A0000000000000001
:1003A000000000000000003FF000000030000000EE
:1003B000000000000000000000000000000000003D
:1003C0000000000000000000000000000000002508
:1003D0004D002F706D000005AE000C02D000000033
:1003E0000000650054FFEF00000000000000000165
:1003F000000044000000000C0000000100000000AC
:10040000000065000000540000FFEF000000000045
:10041000000000000000000000000000004000009C
:10042000000000000000000000000000004000008C
:1004300000000000000000000000000000000000BC
:1004400001000000020000000000000000000000A9
:10045000000000000000000000000000000000009C
:1004600000000000000000000000000000001B0071
:10047000000000000000000000000000000000007C
:10048000000000000000000000000000000000006C
:1004900000000000000000000040000000001B0001
:1004A000000000000000000000000000000000004C
:1004B000000000000000000000000000000000003C
:1004C000000000000000000000000000000000002C
:1004D00000000000000000000000000000D8DCBAAE
:1004E000A2F1DEB2B8B4A88191F74A907F916AF385
:1004F000F9DBA8F9B0BAA080F2CE81F3C2F1C1F263
:10050000C3F3CCA2B280F1C6D880BAA7DFDFDFF296
:10051000A7C3CBC5B6F087A2942448703C95406829
:1005200034589B78A2F183922D557DD8B1B4B8A1EF
:10053000D09180F270F370F27C80A8F101B09887BE
:10054000D943D886C988BAA1F20EB89780F1A9DF3D
:10055000DFDFAADFDFDFF2AAC5CDC7A90CC92C9760
:10056000979797F1A989264666B0B4BA80ACDEF2B7
:10057000CAF1B28C02A9B69800890E161EB8A9B4A9
:10058000992C547CB08AA896365676F1B9AFB4B09F
:1005900083C0B8A89711B18F98B9AFF02408441060
:1005A0006418F1A329557DAF83B593AFF0002850AF
:1005B000F1A3869F61A6DADEDFD9FAA38696DB3146
:1005C000A6D9F8DFBAA68FC2C5C7B28CC1B8A2DF60
:1005D000DFDFA3DFDFDFD8D8F1B8A8B286B4980D8B
:1005E000355DB8AA98B0872D353DB2B6BAAF8C96B6
:1005F000198F9FA70E161EB49AB8AA872C547CB9DF
:10060000A3DEDFDFA3B180F2C4CDC9F1B8A9B499EC
:10061000830D355D89B9A32D557DB593A30E161EA7
:10062000A92C547CB8B4B0F19783A81184A509987B
:10063000A383F0DA240844106418D8F1A529557D65
:10064000A58595021A2E3A565A4048F9F3A3D9F8CF
:10065000F098832408441064189782A8F111F09848
:10066000A2240844106418DAF3DED883A59401D9D3
:10067000A302F1A2C3C5C7D8F18492A24DDA2AD849
:100680004869D92AD86855DA32D85071D932D87029
:100690005DDA3AD85879D93AD87893A34DDA2AD87E
:1006A0004869D92AD86855DA32D85071D932D87009
:1006B0005DDA3AD85879D93AD878A88A9AF0285089
:1006C000789EF38818F19F1D98A8D908D8C89F1262
:1006D0009EF315A8DA1210D8F1AFC8978734B5B9D0
:1006E00094A421F3D922D8F22DF3D92AD8F235F3E4
:1006F000D932D881A4606061D961D86C6869D96940
:10070000D8747071D971D8B1A384193D5DA3831ACF
:100710003E5E931030811011B8B0AF8F94F2DA3E84
:10072000D8B49AA88729DAF8D8879A35DAF8D8871A
:100730009A3DDAF8D8B1B9A49885022E56A5810061
:100740000C14A397B08AF12DD928D84DD948D86D6B
:10075000D968D8B1840DDA0ED8A32983DA2C0ED843
:10076000A3844983DA2C4C0ED8B8B0A88A9AF52015
:10077000AADADFD8A840AAD0DADED8A860AADAD0F0
:10078000DFD8F19786A8319B069907AB9728889BFD
:10079000F00C201440B8B0B4A88C9CF00428517917
:1007A0001D301438B282ABD0982C505078789BF121
:1007B0001AB0F08A9CA82951798B2951798A247022
:1007C000598B2058718A4469388B3940688A64484B
:1007D000318B304960A5882009715844681139640B
:1007E000493019F1AC002C547CF08CA804285078C6
:1007F000F1889726A85998AC8C02264666F0899C09
:10080000A8295179247059446938644831A9880964
:10081000205970AB11384069A8193148608CA83C48
:10082000415C207C00F187981986A86E767EA99994
:10083000882D557D9EB9A38A228A6E8A568A5E9F2C
:10084000B183062646660E2E4E6E9DB8AD002C5422
:100850007CF2B18CB499B9A32D557D8191AC38ADA2
:100860003AB58391AC2DD928D84DD948D86DD968DF
:10087000D88C9DAE29D904AED851D904AED879D937
:1008800004D881F39DAD008DAE1981ADD901D8F2A8
:10089000AEDA26D88E912983A7D9ADADADADF32AB6
:1008A000D8D8F1B0AC89913E5E76F3AC2E2EF1B182
:1008B0008C5A9CAC2C2828289CAC3018A8988128ED
:1008C000343C9724A728343C9C24F2B089AC912C6A
:1008D0004C6C8A9B2DD9D8D851D9D8D879D9D8D8A9
:1008E000F19E88A331DAD8D8912DD928D84DD9488E
:1008F000D86DD968D8B18393353D8025DAD8D885AD
:1009000069DAD8D8B49381A328343CF3AB8BF8A32D
:1009100091B609B4D9ABDEFAB0879CB9A3DDF1A3D7
:10092000A3A3A395F1A3A3A39DF1A3A3A3A3F2A3C0
:10093000B49080F2A3A3A3A3A3A3A3A3A3A3B2A34E
:10094000A3A3A3A3A3B087B599F1A3A3A398F1A3ED
:10095000A3A3A397A3A3A3A3F39BA3A3DCB9A7F18A
:10096000262626D8D8FF29005374617274696E67F1
:10097000204661696C65642021004649464F206F1E
:10098000766572666C6F77210000002100240027D5
:10099000002A000000000102000000000000000426
:1009A0000308070000000000000000000000000035
:1009B00000000000002200250028002B000000207D
:1009C00000230026002900020202020202020204A1
:1009D00004040404040404030303030303030301E2
:1009E0000101010101010101020408102040800100
:1009F000020408102040800102040810204080807A
:100A000040201008040201005E3D4E3D11241FBE2F
:100A1000CFEFD0E1DEBFCDBF12E0A0E0B1E0ECE26D
:100A2000FAE802C005900D92A43EB107D9F726E07E
:100A3000A4EEB2E001C01D92A337B207E1F715E0C2
:100A4000C5E0D5E004C02197FE010E94A63EC43057
:100A5000D107C9F70E948F280C9409450C94000017
:100A600081E08093EA0208952F923F924F925F9225
:100A70006F927F928F929F92AF92BF92CF92DF92AE
:100A8000EF92FF920F931F93CF93DF9300D000D08C
:100A90001F92CDB7DEB720911805822F90E0FC01A0
:100AA0003297E031F10508F094C6E05BFF4F0C94FB
:100AB000A63E233089F08FEF8093FC048093FD04E1
:100AC0008093FE048093FF0483E180932A0680E7ED
:100AD00097E1A0E0B0E007C08FE080932A0688EBA2
:100AE0009BE0A0E0B0E08093F4029093F502A09325
:100AF000F602B093F7029091FA0290932B06809140
:100B0000FB022091FC0220932D062091FD022093F0
:100B10002E06282F2F7220932C06392F3F703D5F11
:100B20003093EF0292959F709A5E9093F0028F70CF
:100B3000835D8093F10222952F70205C2093F20256
:100B40001092F3020E941B0E8FE08093A6040E9475
:100B5000D10D6AE070E080E090E00E94B51687E970
:100B600091E00E94821E87E991E00E94B41E0E94DB
:100B7000B70D60E787E00E94BA0D60E081E00E9457
:100B8000BA0D60912A0681E10E94BA0D61E082E00F
:100B90000E94BA0D80E00E94E00D0E94F51E60E008
:100BA0008CE10E94BA0D60E08DE10E94BA0D66E909
:100BB00070E080E090E00E94B51678EEE72E73E0DA
:100BC000F72E0E94D10D8EE00E94720F62E085E048
:100BD0000E94BA0D60E787E00E94BA0D0E94B70D2F
:100BE0008AEA0E940D23809118058230A1F083309B
:100BF00009F042C08091F4029091F5028330910592
:100C000028F0880F991F04970197F1F711E0E1147C
:100C1000F10499F131C061E070E080E090E00E9461
:100C2000B51682E090E00E94F70D60E787E00E9431
:100C3000BA0D0E94B40D8FE00E94720F0E94EF1651
:100C40004B015C0125E0820E911CA11CB11C0E948D
:100C5000EF16681579058A059B0570F487E00E94F8
:100C60007F0D86FFF4CF80912A060E94FD1E11E0C1
:100C700080910005813009F010E06E2D60718CE0EC
:100C80000E94071642E0E41AF10861E06E0D6071FF
:100C90008DE00E9407168DE10E94DE15892B21F45C
:100CA00081E08093060195C5112309F48ACF91C58F
:100CB000BE016F5F7F4F7B0185E0DB011D928A954E
:100CC000E9F705E216E055E0D52ED00E0E943D432F
:100CD000F80161938F01DE12F9CF1092210602E232
:100CE00016E032E4832E912CA12CB12C43E0D42EBB
:100CF000D00E0E943D43A50194010E946F44D8018B
:100D00006D938D01DA12F5CF8FE08093A6040E94D7
:100D1000D10DC7010E94821E0E94B70D0E94B40D22
:100D200060E081E00E94BA0D61E082E00E94BA0DAD
:100D300063E083E00E94BA0D6FE081E10E94BA0D8A
:100D400060E084E00E94BA0D80E00E94E00D0E9405
:100D5000F51E0E94781E60E08CE10E94BA0D61E0F1
:100D60008DE10E94BA0D0E94781E66E970E080E075
:100D700090E00E94B51608EE13E02CECE22E27E07E
:100D8000F22E8091F8029091F902892B19F481E0FA
:100D90000E94B5238091F8029091F9020196837028
:100DA00099279093F9028093F802C7010197F1F710
:100DB000602F60718CE00E9407160250110961E0FB
:100DC000600F60718DE00E94071601151105C9F6CC
:100DD00085E296E00E94821E85E296E095C410921C
:100DE000FF021092FE028FE08093A6040E94D10DB4
:100DF00087E00E947F0D6CE080E00E94BA0D60E009
:100E000081E00E94BA0D6FE382E00E94BA0D63E0B8
:100E100083E00E94BA0D6FEF84E00E94BA0D68E093
:100E200085E00E94BA0D809118058A3029F480E08F
:100E30000E94E00D80E104C082E00E94E00D8AE0A3
:100E4000809317050E94F51E60E787E00E94BA0DA7
:100E500060E088E00E94BA0D60E089E00E94BA0D6F
:100E600063EC8CE00E94BA0D64EC8DE00E94BA0D38
:100E700065EC8EE00E94BA0D66EC8FE00E94BA0D20
:100E80006AE081E10E94BA0D6AE082E10E94BA0D37
:100E90006AE083E10E94BA0D6AE084E10E94BA0D23
:100EA0006AE085E10E94BA0D6AE086E10E94BA0D0F
:100EB00060E087E10E94BA0D809118058A3019F030
:100EC00067ED72E002C061ED72E080E10E94891D71
:100ED00087E00E947F0D0E94B70D87E00E947F0D82
:100EE0006EE087E00E94BA0D80E00E947F0D6CE00A
:100EF00080E00E94BA0D6EE080E00E94BA0D109270
:100F0000180384EE93E00197F1F763C40AEF12E04F
:100F100020E636E0ECE5F6E086E0D82E9FE0E92E0C
:100F2000F12CD8014D918D01D9014D939D01842F54
:100F300090E0A4E095958795AA95E1F74F70840F0E
:100F4000911DB7010E94923E8D0D8193BFE0DB0E93
:100F5000B3E32B2ED210E5CF8FE08093A6040E943E
:100F6000D10D8CE991E00E94821E0E94B70D0E9473
:100F7000B40D60E081E00E94BA0D61E082E00E9461
:100F8000BA0D63E083E00E94BA0D60E084E00E9445
:100F9000BA0D80E00E94E00D0E94F51E0E94781EAE
:100FA00060E08CE10E94BA0D61E08DE10E94BA0D13
:100FB0000E94781E08EE13E07CE0C72E7EE0D72E5C
:100FC0000150110908F405C481E00E942727C601D9
:100FD0000197F1F7202F2071F22E622F8CE00E94F2
:100FE00007166F2D8DE00E940716EACF2F3011F4FF
:100FF00084E001C081E0809368062091680610912A
:10100000FA02243089F4E12FE77056E0E59FF00101
:101010001124EF55FE4F8081918190936A06809351
:10102000690610926B0625C0812F21110CC0887FA4
:10103000809369068091FB0280936A068091FC028E
:1010400080936B0616C090E063E070E00E947E3EE5
:1010500037E0389FF001399FF00D1124EF52FE4F19
:1010600080819181A2818093690690936A06A09302
:101070006B0685E0EDEDF2E0DE01119601900D9238
:101080008A95E1F7211105C082E192E2A2E3B2E480
:1010900007C02350223068F486E39EE3A6E4BEE254
:1010A0008093640690936506A0936606B0936706E6
:1010B00015C08AE095E3A2E4BDE3809364069093B3
:1010C0006506A0936606B093670685E0E1EDF2E061
:1010D000DE01119601900D928A95E1F78FE08093E1
:1010E000A6040E94D10D80916806833039F4BE01B8
:1010F0006F5F7F4F80E10E94891D04C0CE01019681
:101100000E94821E0E94B70D0E94B40D60E787E026
:101110000E94BA0D60E081E00E94BA0D61E082E0B9
:101120000E94BA0D60E084E00E94BA0D60E181E1A6
:101130000E94BA0D80916806843011F482E001C0EB
:1011400080E00E94E00D0E94F51E0E94781E60E083
:101150008CE10E94BA0D60E08DE10E94BA0D0E9400
:10116000781E86E990E09093F1038093F0036CE39E
:10117000C62E6FE1D62E8091F0039091F1037C0191
:1011800061E0E61AF108F092F103E092F003892B96
:1011900089F081E00E944725C6010197F1F70E2DE5
:1011A0000071602F8CE00E940716602F8DE00E9476
:1011B0000716E1CF80916806843069F4812F87702B
:1011C00076E0879FF0011124EF55FE4F82819381D5
:1011D000A481B58106C0833069F482E39EE3A2E472
:1011E000BEE48093640690936506A0936606B09370
:1011F0006706EFC2882309F4ECC2812F90E063E018
:1012000070E00E947E3E27E0289FF001299FF00DAC
:101210001124EF52FE4F83819481A581B681E1CFE5
:101220008091FA0280932E032091FB0220932F03DA
:10123000C090FC02C09230039091FD029093310364
:10124000382F369530933203D12CE12CF12C7601D6
:10125000DD24CC24F92AB701A601482BDB01CA0101
:10126000C22ED12CDC2CCC240D2C000CEE08FF0857
:10127000C82AD92AEA2AFB2A4601570100E010E0D1
:1012800059E4452E512C612C712CA50194016DE07F
:1012900076E689E190E00E946E3E4B015C0151EAE6
:1012A000851A5CE0950A51E9A50A53ECB50A99271D
:1012B0008B2D7A2D692DA30192010E94D84472E0F2
:1012C000760FD701C601872780FF41C0E9E1F3E02F
:1012D000A0E0B0E020E030E040E050E080E090E0CE
:1012E00080179107C4F43190371689F10F2EFAE177
:1012F0002F2EF02D231418F04F5F5F4F0AC00F2ED2
:10130000F2E32F2EF02D231418F02F5F3F4F01C072
:1013100011960196E5CF8017910709F057C27B31EE
:1013200018F44830510564F06951683118F42830D8
:10133000310534F0733308F44AC218970CF047C2F1
:101340008C010F5F1F4FFC01E75EFC4F708304317F
:1013500011050CF49ACF10925E0310922D03EEE269
:10136000F3E0DF0180E090E035E03E0F2D91820F49
:10137000911D3A13FBCF282F892F9FEF90933303B2
:101380009AEA9093340395E590933503A6E3B3E08E
:1013900091919D933E13FCCF20933D0380933E0398
:1013A00010923F03209347038093480391E090936A
:1013B0004903209351038093520382E080935303A7
:1013C000A0E4B3E0E9E1F3E087E08E0F91919D9313
:1013D0008E13FCCF80E090E0FC01ED5CFC4FDC0163
:1013E000A75EBC4F17962C91278B019687309105ED
:1013F00099F780E090E0FC01ED5CFC4FDC01A75E1A
:10140000BC4F1E962C9121A301968630910599F729
:1014100010925B038CE291E090935D0380935C03F8
:101420008FE08093A60461E082E00E94BA0D60E044
:1014300081E00E94BA0D6EE273E080E10E94891D96
:101440006EE273E08AE00E94891D6AE081E10E94F9
:10145000BA0D61E585E00E94BA0D0E94D10D6EE0E3
:1014600080E00E94BA0D63E083E00E94BA0D80E044
:101470000E94E00D0E94F51E60E787E00E94BA0D11
:101480006AE070E080E090E00E94B516A2C1209171
:10149000FD028091FC0290E0A0E0B0E0DC01992721
:1014A0008827B22B2091FA02822B4091FB0250E058
:1014B000542F4427052E000C660B770B842B952B9D
:1014C000A62BB72BB0935F03A093600390936103A7
:1014D0008093620381EC809363031092F203109275
:1014E000F3031092F4031092F5038FE08093A604A7
:1014F0000E94D10D6AE080E00E94BA0D6FE381E0A6
:101500000E94BA0D6FE382E00E94BA0D63E083E0AF
:101510000E94BA0D6AE184E00E94BA0D6CE385E096
:101520000E94BA0D80E00E94E00D0E94F51E60E767
:1015300087E00E94BA0D63EC8CE00E94BA0D64EC67
:101540008DE00E94BA0D65EC8EE00E94BA0D66EC4B
:101550008FE00E94BA0D68E081E10E94BA0D68E058
:1015600082E10E94BA0D68E083E10E94BA0D68E052
:1015700084E10E94BA0D68E085E10E94BA0D68E03E
:1015800086E10E94BA0D60E087E10E94BA0D6FE328
:101590008CE10E94BA0D8DE10E947F0D0E94781EA1
:1015A0008DE10E947F0D6FE38CE10E94BA0D67E030
:1015B0008DE10E94BA0D6FE573E08AE00E94891DFB
:1015C0006FE573E080E10E94891D62E370E080E0D6
:1015D00090E00E94B51610926403FBC0AE014F5F0D
:1015E0005F4F7A0185E0DA011D928A95E9F703E3FE
:1015F00016E045E0D42ED00E0E943D43F8016193E1
:101600008F01DE12F9CF10922F0600E316E022E4DC
:10161000822E912CA12CB12C33E0D32ED00E0E941F
:101620003D43A50194010E946F44D8016D938D0143
:10163000DA12F5CF8FE08093A6040E94D10DC70186
:101640000E94821E0E94B70D0E94B40D60E081E0EE
:101650000E94BA0D61E082E00E94BA0D63E083E06F
:101660000E94BA0D6FE081E10E94BA0D60E084E053
:101670000E94BA0D80E00E94E00D0E94F51E0E94BB
:10168000781E60E08CE10E94BA0D61E08DE10E945D
:10169000BA0D0E94781E66E970E080E090E00E943A
:1016A000B51608EE13E09CECE92E97E0F92E809138
:1016B000650390916603892B19F481E00E94FE2155
:1016C00080916503909166030196837099279093AA
:1016D000660380936503C7010197F1F7602F60717E
:1016E0008CE00E9407160250110961E0600F6071E2
:1016F0008DE00E94071601151105C9F683E396E0F7
:101700000E94821E83E396E00E94B41E62C08FE0B6
:101710008093A6040E94D10D6FE171E080E10E94E8
:10172000891D0E94B70D0E94B40D60E081E00E9407
:10173000BA0D60E082E00E94BA0D63E083E00E948F
:10174000BA0D60E084E00E94BA0D82E00E94E00DD4
:101750000E94F51E0E94781E60E08CE10E94BA0D86
:1017600061E08DE10E94BA0D0E94781E66E970E08A
:1017700080E090E00E94B5160E943D4360932801EE
:101780000E943D436093290108EE13E08CE9E82EA6
:101790008FE0F82E81E00E94731FC7010197F1F7D7
:1017A000602F60718CE00E9407160250110961E001
:1017B000600F60718DE00E9407160115110551F749
:1017C00068E271E080E10E94891D03C0C8018C01BC
:1017D0005CCD0F900F900F900F900F90DF91CF91F5
:1017E0001F910F91FF90EF90DF90CF90BF90AF903F
:1017F0009F908F907F906F905F904F903F902F9031
:1018000008956115710579F0FB0101900020E9F759
:101810003197AF01461B570BDC01ED91FC91028023
:10182000F381E02D099480E090E008952F923F929B
:101830004F925F926F927F928F929F92AF92BF92E0
:10184000CF92DF92EF92FF920F931F93CF93DF938C
:10185000CDB7DEB727970FB6F894DEBF0FBECDBF6A
:10186000E82E6B834F8369010E94EF164B015C01E8
:101870006E2C660CF12C1E82772473945F81452FA9
:1018800050E05D834C831801412C512C4F81F4169C
:1018900008F099C07092D304E092F5041092D40439
:1018A0001092F6046B8186EB95E00E9403150E946E
:1018B0002D1A7092D304E092F5041092D404109281
:1018C000F6048091D2048111FCCF2C813D812F1927
:1018D00031092132310514F020E230E0213208F0E4
:1018E00020E27092D2047092D1048FEF8093D004E2
:1018F0001092CF04820F8093CE047092AD04809139
:10190000AD0486298093AD048091AC04813071F4DC
:101910001092AC048091AD048093BB008091BC0018
:1019200083FDF8CF95EC9093BC0003C0E5EEE09307
:10193000BC008091D2048130E1F38091CF04821702
:1019400010F42091CF04AEEAB4E0E6EFF3E08E2F7E
:1019500046EF53E0841B821718F48D918193F7CFE3
:101960001092E9022093E8029091E8028091E90246
:10197000981719F10115110599F4A6012E81420F4E
:10198000511D27FD5A955A83498386EB95E00E94A5
:10199000B714E981FA8180832E812F5F2E83E4CFF3
:1019A0000E94EF16DC01CB0188199909AA09BB092D
:1019B00082159305A405B50500F38F81813208F0E7
:1019C00080E2F80E63CFFE8001151105D9F00E9468
:1019D000EF16DC01CB0188199909AA09BB0920E09F
:1019E00030E080179107A207B30760F05F81252FD1
:1019F00030E08F2D0F2C000C990B8217930714F4F5
:101A0000FF24FA948F2D27960FB6F894DEBF0FBEF1
:101A1000CDBFDF91CF911F910F91FF90EF90DF909D
:101A2000CF90BF90AF909F908F907F906F905F907E
:101A30004F903F902F900895CF92DF92EF92FF92B8
:101A40000F931F93CF93DF931F92CDB7DEB7F82E7E
:101A5000E62ED42EC22E08EE13E09E012F5F3F4FDC
:101A600041E00E94160C9981CC2041F041E050E009
:101A700001C0440FDA94EAF7492B09C021E030E0B5
:101A8000A90101C0440FDA94EAF74095492349833C
:101A90006E2D8F2D0E94B1190F90DF91CF911F9164
:101AA0000F91FF90EF90DF90CF9008952D98000058
:101AB00098E080E0880F1E9981602F9A00002F988F
:101AC00000009150B9F70895282F2F982D9899E08C
:101AD00080E0915069F027FF02C02D9A01C02D9837
:101AE000880F1E9981602F9A00002F98220FF1CF46
:101AF0002D9A08955E980E94640D5E9A08955E98EE
:101B00005E980E94640D0E94560D5E9A5E9A08953A
:101B1000CF92DF92FF920F931F93CF93DF931F9289
:101B2000CDB7DEB7182F062F2B985E9880EA9983E1
:101B30000E94640DF12EC12E9981D92E8C2D8F1902
:101B4000801730F4F60181916F010E94640DF6CF89
:101B50005E9A2B9A81E00F90DF91CF911F910F91A8
:101B6000FF90DF90CF90089582EE0C947A0D81EE75
:101B70000C947A0DCF93DF931F92CDB7DEB75E98AA
:101B80005E98806269830E94640D00006981862FDF
:101B90000E94640D5E9A5E9A81E00F90DF91CF9172
:101BA00008952B9860E787E00E94BA0D6EE080E010
:101BB0000E94BA0D80E091E00197F1F72B9A089509
:101BC000682F62706295607F282F217030E083E07B
:101BD000220F331F8A95E1F7262B8091A604877D7B
:101BE000622F682B6093A60486E00C94BA0D8130B6
:101BF000910511F40C94D10D0297B9F42B9860E77C
:101C000087E00E94BA0D6FE080E00E94BA0D60E7A5
:101C100087E00E94BA0D6FE080E00E94BA0D80E07C
:101C200091E00197F1F72B9A089568E080E00E9417
:101C3000BA0D2B980895CF93DF930E94B70D0E94A1
:101C4000B40D8FEF0E947A0DC82F87E00E947F0DA0
:101C5000D82F80E090E00E94F70DCD1304C0CF7024
:101C600081E0CE3009F080E0DF91CF910895CF92EE
:101C7000DF92EF92FF92CF93DF938823E1F0809180
:101C80005F038093F704809160038093F804809150
:101C900061038093F904809162038093FA0486E5DE
:101CA0008093FB048AEA8093FC0482E38093FD0422
:101CB0001092FE04D1C08091AA049091AB048F379A
:101CC00024E092073CF02091A8043091A90421302F
:101CD000310541F488EE93E0909308018093070169
:101CE00061E009C0909308018093070161E08DE0F5
:101CF0000E94071660E08CE00E9407162091070101
:101D000030910801C901A0E0B0E09C01AD01285E5E
:101D1000334041095109AFEFB0E00E948E4428EEF4
:101D2000C22E23E0D22EE12CF12CA70196010E94B5
:101D30006F442093F70420910D0130910E01C901E9
:101D4000A0E0B0E09C01AD01285E3340410951099B
:101D5000AFEFB0E00E948E44A70196010E946F444D
:101D6000D22F2093F80420910B0130910C01C9016E
:101D7000A0E0B0E09C01AD01285E3340410951096B
:101D8000AFEFB0E00E948E44A70196010E946F441D
:101D9000C22F2093FA044091090150910A0160E09A
:101DA00070E09A01AB01285E334041095109AFEF61
:101DB000B0E00E948E44A70196010E946F44822FDA
:101DC0002093FB042D2F30E0359527952093F904BF
:101DD0002C2F30E0359527952093FC04282F30E0F8
:101DE000359527952093FD0480910F019091100166
:101DF000853A964010F480E001C080E820911101FE
:101E000030911201253A364010F420E001C02FE055
:101E1000822B2091130130911401253A364010F4A1
:101E200020E001C020E4822B2091150130911601A1
:101E3000253A364010F490E001C090E2982B2091B2
:101E4000170130911801253A364010F480E001C0A6
:101E500080E1892B8093FE0460E387E00E94BA0D45
:101E60000E94B70D8091F7048093FF04E8EFF4E03F
:101E700097E09E0F21918091FF04820F8093FF04D1
:101E80009E13F8CF80958093FF0469E087EF94E07C
:101E90000E94880D8091F2039091F303A091F403C6
:101EA000B091F5030196A11DB11D8093F2039093AB
:101EB000F303A093F403B093F503DF91CF91FF9068
:101EC000EF90DF90CF90089587E00E947F0D8073A0
:101ED000803121F0803221F080E0089582E0089581
:101EE00081E0089583FB992790F99093A704682FC8
:101EF000637F80E00C94BA0D282F98E080E0322FA9
:101F00003170880F832B26959150C9F70895E82FDB
:101F1000F0E0EE0FFF1FE95FFE4F80819181AC0181
:101F200060E070E08C3D954090F49A01AB01285E32
:101F3000334041095109A1E8BFEF0E949C4424EFBE
:101F400031E040E050E00E946F448FE711C09A01F9
:101F5000AB012C5D354041095109AFE7B0E00E946B
:101F60008E4424EF31E040E050E00E946F4480E86E
:101F7000820F0895909118059A3009F06AC188235C
:101F8000A1F04091170550E060E070E087EF94E029
:101F90000E94D8428EEA8093FE0489EA8093FF046F
:101FA00080EC8093050587E151C18091AA0490914E
:101FB000AB048F3724E092073CF02091A8043091C5
:101FC000A9042130310541F488EE93E09093080193
:101FD0008093070161E009C0909308018093070195
:101FE00061E08DE00E94071660E08CE00E94071619
:101FF0002091070130910801C901A0E0B0E09C01E7
:10200000AD01285E334041095109AFEFB0E00E94B5
:102010008E4428EE33E040E050E00E946F4420936D
:10202000F70480910D0190910E01AC0160E070E029
:102030008C3D954098F49A01AB012C5D35404109E7
:102040005109AFE7B0E00E948E442CE03EEF4FEF25
:102050005FEF0E946F442093F80418C09A01AB010F
:102060002C5D354041095109AFE7B0E00E948E4434
:1020700024EF31E040E050E00E946F44DA01C901F2
:1020800080589F4FAF4FBF4F8093F80480910B0152
:1020900090910C01AC0160E070E08C3D9540C8F47B
:1020A0009A01AB012C5D354041095109AFE7B0E021
:1020B0000E948E442CE03EEF4FEF5FEF0E946F4492
:1020C000DA01C90180589F4FAF4FBF4F8093F90489
:1020D00012C09A01AB012C5D354041095109AFE7AF
:1020E000B0E00E948E4424EF31E040E050E00E94D6
:1020F0006F442093F9048091090190910A01AC0189
:1021000060E070E08C3D954098F49A01AB012C5D45
:10211000354041095109AFE7B0E00E948E442CE000
:102120003EEF4FEF5FEF0E946F442093FA0418C018
:102130009A01AB012C5D354041095109AFE7B0E090
:102140000E948E4424EF31E040E050E00E946F4452
:10215000DA01C90180589F4FAF4FBF4F8093FA04F7
:102160008091F80420E8280F87FD05C08FEF90E0EC
:10217000821B910904C0822F90E080589F4F959553
:10218000879595958795805E8093FB048091F904EF
:1021900020E8280F87FD05C08FEF90E0821B910992
:1021A00004C0822F90E080589F4F95958795959514
:1021B0008795805E8093FC048091FA0420E8280FC4
:1021C00087FD05C08FEF90E0821B910904C0822F2C
:1021D00090E080589F4F9595879595958795805E5F
:1021E0008093FD048EEA8093FE0489EA8093FF04C5
:1021F000109200051092010510920205109203053D
:10220000109204058091150190911601853A96402F
:1022100010F490E001C090E120911301309114017D
:10222000253A364010F480E001C088E021E040917A
:10223000110150911201453A564008F420E0246003
:10224000922B892B809305050E940C1A809306051A
:1022500042C18823D1F0809105038093F7048091D7
:1022600004038093F804809103038093F904809120
:1022700002038093FA04809101038093FB048AEAAD
:102280008093FC048093FD041EC18091AA04909168
:10229000AB048F3744E094073CF02091A8043091C0
:1022A000A9042130310541F488EE93E090930801B0
:1022B0008093070161E009C09093080180930701B2
:1022C00061E08DE00E94071660E08CE00E94071636
:1022D0002091070130910801C901A0E0B0E09C0104
:1022E000AD01285E334041095109AFEFB0E00E94D3
:1022F0008E4428EE33E040E050E00E946F4420938B
:10230000F70480910B0190910C01AC0160E070E04A
:102310008C3D9540C8F49A01AB012C5D35404109D4
:102320005109AFE7B0E00E948E442CE03EEF4FEF42
:102330005FEF0E946F44DA01C90180589F4FAF4F91
:10234000BF4F8093F80412C09A01AB012C5D354059
:1023500041095109AFE7B0E00E948E4424EF31E01B
:1023600040E050E00E946F442093F80480910D01FA
:1023700090910E01AC0160E070E08C3D954098F4C6
:102380009A01AB012C5D354041095109AFE7B0E03E
:102390000E948E442CE03EEF4FEF5FEF0E946F44AF
:1023A0002093F90418C09A01AB012C5D3540410916
:1023B0005109AFE7B0E00E948E4424EF31E040E0E5
:1023C00050E00E946F44DA01C90180589F4FAF4F1F
:1023D000BF4F8093F9048091090190910A01AC01EB
:1023E00060E070E08C3D954098F49A01AB012C5D63
:1023F000354041095109AFE7B0E00E948E442CE01E
:102400003EEF4FEF5FEF0E946F442093FA0418C035
:102410009A01AB012C5D354041095109AFE7B0E0AD
:102420000E948E4424EF31E040E050E00E946F446F
:10243000DA01C90180589F4FAF4FBF4F8093FA0414
:102440001092FB048091150190911601853A9640F7
:1024500018F080E88093FB0480911301909114019F
:10246000853A964028F08091FB0480648093FB04B9
:102470008091F80486958695806C8093FC04209169
:10248000F90430E035952795359527952093FD047F
:102490008091FA0490E0959587959595879580931E
:1024A000FE044091110150911201453A564018F036
:1024B00020642093FD042091170130911801253AE2
:1024C000364018F080688093FE041092FF040E944A
:1024D0000C1A8093000560E787E00E94BA0D6EE257
:1024E00080E00E94BA0DE0910003F0E0EA5FFC4F4B
:1024F000608185E00E94BA0D0E94B70D60911705BA
:1025000087EF94E00E94880D8091FE029091FF0277
:102510009C012F5F3F4F3093FF022093FE0280FF0C
:102520000BC08091000390E001966091170370E06A
:102530000E94923E809300030895CF92DF92EF9223
:10254000FF920F931F93CF93DF936C017A018B015E
:10255000C0E0D0E0CE15DF0589F0D8016D918D0186
:10256000D601ED91FC910190F081E02DC601099515
:10257000892B11F47E0102C02196ECCFC701DF91B7
:10258000CF911F910F91FF90EF90DF90CF90089522
:10259000FC01918D828D981761F0828DDF01A80F6B
:1025A000B11D5D968C91928D9F5F9F73928F90E08D
:1025B00008958FEF9FEF0895FC01918D828D9817FC
:1025C00031F0828DE80FF11D858D90E008958FEF39
:1025D0009FEF0895FC01918D228D892F90E0805C02
:1025E0009F4F821B91098F739927089589E195E088
:1025F0000E94EA1221E0892B09F420E0822F08953D
:10260000FC01848DDF01A80FB11DA35ABF4F2C918F
:10261000848D90E001968F739927848FA689B7895E
:102620002C93A089B1898C9180648C93938D848D37
:10263000981306C00288F389E02D80818F7D808306
:102640000895EF92FF920F931F93CF93DF93EC01C6
:1026500081E0888F9B8D8C8D981305C0E889F9895E
:10266000808185FD24C0F62E0B8D10E00F5F1F4F7B
:102670000F731127E02E8C8DE8120CC00FB607FCEB
:10268000FACFE889F989808185FFF5CFCE010E94D4
:102690000013F1CF8B8DFE01E80FF11DE35AFF4FC0
:1026A000F0820B8FEA89FB898081806207C0EE8906
:1026B000FF896083E889F98980818064808381E073
:1026C00090E0DF91CF911F910F91FF90EF900895CF
:1026D000CF93DF93EC01888D8823C9F0EA89FB89C9
:1026E000808185FD05C0A889B9898C9186FD0FC0C0
:1026F0000FB607FCF5CF808185FFF2CFA889B98995
:102700008C9185FFEDCFCE010E940013E7CFDF91C2
:10271000CF91089580E090E0892B21F00E94F6127D
:1027200081110DC080E090E0892B71F080E090E095
:10273000892B51F00E940000811104C008950E946D
:102740000000F0CF0C9400000895833081F028F44D
:10275000813099F08230A1F008958730A9F0883057
:10276000B9F08430D1F4809180008F7D03C08091D6
:1027700080008F7780938000089584B58F7702C0A2
:1027800084B58F7D84BD08958091B0008F7703C09C
:102790008091B0008F7D8093B000089508952091BE
:1027A000E6023091E7022817390771F49091E402AC
:1027B0008091E502981741F0E091E402F0E0E35ADD
:1027C000FB4F808190E008958FEF9FEF089508956B
:1027D0001F93CF93DF93DC015C962D913C915D9725
:1027E0002115310539F481E090E013969C938E9386
:1027F00012973DC05196ED91FC91529750969C9145
:102800005097892F80951FB75E964C915E9741FB3C
:10281000772770F941FD6095F8944081772311F096
:10282000492B01C048234083E9012197F1F748E093
:10283000508160FF02C0592B01C058235083E90129
:102840002197F1F76695415099F7772321F0908110
:102850008923808303C08081982B90831FBF5C965F
:102860008D919C915D970197F1F721E030E0C901CE
:10287000DF91CF911F9108952091E6023091E702F8
:102880002817390771F48091E5022091E40290E065
:10289000805C9F4F821B910960E470E00E94923E31
:1028A000089580E090E008952091E6023091E702DB
:1028B00028173907B9F49091E4028091E50298173E
:1028C00089F0E091E402F0E0E35AFB4F808120912F
:1028D000E40230E02F5F3F4F2F7333272093E40251
:1028E00090E008958FEF9FEF089585ED8093BC00F1
:1028F0008091BC0084FDFCCF1092D20408954091D9
:102900003804262F30E0240F311D21323105DCF44C
:102910002091D2042430C9F4FC0180E090E08617B5
:1029200058F4309138042191DC01AA5EBB4FA30F0B
:10293000B11D2C930196F3CF80913804680F6093FA
:10294000380480E0089581E0089582E008950895B4
:10295000E091E9028091E802E81730F4F0E0EA50F3
:10296000FC4F808190E008958FEF9FEF0895909144
:10297000E9028091E802981750F4E92FF0E0EA505C
:10298000FC4F208130E09F5F9093E90202C02FEF5F
:102990003FEFC90108958091E80290E02091E9029B
:1029A000821B91090895CF92DF92EF92FF920F93CD
:1029B0001F93CF93DF937C01262F972F8A0180915D
:1029C000D304882391F0C62FD72F6E01C40ED51ED5
:1029D000CC15DD0571F06991D701ED91FC91019065
:1029E000F081E02DC7010995F3CF642F822F0E945B
:1029F0007F14C801DF91CF911F910F91FF90EF904D
:102A0000DF90CF900895CF93DF931F92CDB7DEB7BD
:102A100069832091D3042223D1F02091F60420323F
:102A200040F021E030E0FC013383228380E090E03D
:102A300015C08091D404E82FF0E0EB52FB4F998150
:102A400090838F5F8093D4048093F60405C061E087
:102A5000CE0101960E947F1481E090E00F90DF91FB
:102A6000CF9108950E94BD420F931F93CF93DF93A0
:102A7000EC0188819981009729F02A813B812617F2
:102A8000370788F48B016F5F7F4F0E94F3410097F7
:102A900061F0998388831B830A832C813D81232BDA
:102AA00011F4FC01108281E001C080E0DF91CF9140
:102AB0001F910F910895EF92FF920F931F93CF9361
:102AC000DF93EC017B018A01BA010E943415288151
:102AD000398181110DC02115310519F0C9010E94FC
:102AE0005B41198218821D821C821B821A8206C0D9
:102AF0001D830C83B701C9010E94E842CE01DF911A
:102B0000CF911F910F91FF90EF9008951F920F9218
:102B10000FB60F9211242F933F934F935F936F93B0
:102B20007F938F939F93AF93BF93EF93FF9389E12D
:102B300095E00E940013FF91EF91BF91AF919F919B
:102B40008F917F916F915F914F913F912F910F9056
:102B50000FBE0F901F9018951F920F920FB60F92F5
:102B600011242F938F939F93EF93FF93E091290567
:102B7000F0912A058081E0912F05F091300582FDCA
:102B800012C09081809132058F5F8F732091330541
:102B9000821751F0E0913205F0E0E75EFA4F958F31
:102BA0008093320501C08081FF91EF919F918F91B9
:102BB0002F910F900FBE0F901F901895CF93DF931A
:102BC000282F30E0F901ED56F64F8491F901E951D3
:102BD000F64FD491F901E953F64FC491CC2391F00B
:102BE00081110E94A513EC2FF0E0EE0FFF1FE354BC
:102BF000F64FA591B491EC91ED2381E090E021F4A2
:102C000080E002C080E090E0DF91CF9108951F93B3
:102C1000CF93DF93282F30E0F901ED56F64F8491E2
:102C2000F901E951F64FD491F901E953F64FC491F6
:102C3000CC23C9F0162F81110E94A513EC2FF0E0D0
:102C4000EE0FFF1FED54F64FA591B4918FB7F89496
:102C5000111105C09C91ED2FE095E92302C0EC9184
:102C6000ED2BEC938FBFDF91CF911F910895CF9300
:102C7000DF9390E0FC01E951F64F2491FC01E95308
:102C8000F64F8491882361F190E0880F991FFC0131
:102C9000E757F64FC591D491FC01ED54F64FA5913D
:102CA000B491611109C09FB7F8948881209582235F
:102CB0008883EC912E230BC0623061F49FB7F894A7
:102CC0003881822F809583238883EC912E2B2C933F
:102CD0009FBF06C08FB7F894E8812E2B28838FBF43
:102CE000DF91CF910895883038F0883120F09FE14E
:102CF000981B892F01C08FEF8770806480937C00C0
:102D000080917A00806480937A0080917A0086FDB9
:102D1000FCCF809178002091790090E0922B08956B
:102D20003FB7F8948091A2049091A304A091A404C9
:102D3000B091A50426B5A89B05C02F3F19F00196B8
:102D4000A11DB11D3FBFBA2FA92F982F8827820F31
:102D5000911DA11DB11DBC01CD0143E0660F771F80
:102D6000881F991F4A95D1F708958F929F92AF922D
:102D7000BF92CF92DF92EF92FF926B017C010E9493
:102D800090164B015C01C114D104E104F104F1F08F
:102D90000E949016DC01CB0188199909AA09BB0988
:102DA000883E9340A105B10570F321E0C21AD10815
:102DB000E108F10888EE880E83E0981EA11CB11C82
:102DC000C114D104E104F10419F7DDCFFF90EF90B5
:102DD000DF90CF90BF90AF909F908F9008952FB7C6
:102DE000F89460919E0470919F048091A00490914A
:102DF000A1042FBF08951F920F920FB60F921124B6
:102E00002F933F938F939F93AF93BF9380919E0493
:102E100090919F04A091A004B091A10430919D04D1
:102E200026E0230F2D3720F40296A11DB11D05C009
:102E300029E8230F0396A11DB11D20939D048093C3
:102E40009E0490939F04A093A004B093A10480914A
:102E5000A2049091A304A091A404B091A5040196AA
:102E6000A11DB11D8093A2049093A304A093A40478
:102E7000B093A504BF91AF919F918F913F912F91F6
:102E80000F900FBE0F901F9018951F920F920FB6C4
:102E90000F9211242F933F934F935F936F937F93E0
:102EA0008F939F93AF93BF93EF93FF93E0910401B0
:102EB000F09105010995FF91EF91BF91AF919F911D
:102EC0008F917F916F915F914F913F912F910F90D3
:102ED0000FBE0F901F9018951F920F920FB60F9272
:102EE00011242F933F934F935F936F937F938F930F
:102EF0009F93AF93BF93EF93FF93E0910201F09103
:102F000003010995FF91EF91BF91AF919F918F912F
:102F10007F916F915F914F913F912F910F900FBED5
:102F20000F901F9018951F920F920FB60F921124B9
:102F30002F933F934F935F936F937F938F939F93C1
:102F4000AF93BF93EF93FF93E0910001F0910101E4
:102F50000995FF91EF91BF91AF919F918F917F91D3
:102F60006F915F914F913F912F910F900FBE0F90F6
:102F70001F9018951F920F920FB60F9211242F9346
:102F80003F934F935F936F937F938F939F93AF93F1
:102F9000BF93EF93FF93E091E602F091E702309741
:102FA00009F451C0968DA685B785858591FF04C02B
:102FB0009C91892329F447C09C91892309F043C03F
:102FC000A389B4899C918589809589238C9386896E
:102FD00097890197F1F7608D718DA685B785558525
:102FE00038E020E0CB010197F1F7822F90E0959532
:102FF0008795282F4C91452309F02068315091F78F
:10300000868D81FD20958091E50290E001968F7379
:1030100099273091E402381749F0A091E502B0E019
:10302000A35ABB4F2C938093E50203C0868D816029
:10303000868F828D938D0197F1F7A389B4899C9136
:103040008589892B8C93FF91EF91BF91AF919F91CF
:103050008F917F916F915F914F913F912F910F9041
:103060000FBE0F901F901895E091E602F091E702D5
:10307000E817F90769F4A389B4899C91858980953B
:1030800089238C931092E7021092E60281E0089562
:1030900080E008951F920F920FB60F9211242F9384
:1030A0003F934F935F936F937F938F939F93AF93D0
:1030B000BF93EF93FF938091B900887F803609F426
:1030C0009CC068F5883209F45BC090F4803109F443
:1030D00054C038F4882309F4F6C0883009F44DC090
:1030E000F6C0883109F44CC0803209F45DC0EFC0ED
:1030F000803409F468C048F4803309F455C088333B
:1031000009F0E5C08093D004D8C0803509F44FC0E1
:10311000883509F45DC0883409F0D9C0D6C0883933
:1031200009F4C7C0A8F4883709F467C038F48836B2
:1031300009F463C0803709F460C0C9C0883809F455
:10314000B8C0803909F45FC0803809F0C0C05BC0E6
:10315000803B09F486C038F4803A09F466C0883AA6
:1031600009F47FC0B4C0803C09F4A7C0883C09F4CE
:10317000A4C0883B09F48AC0AAC08091AD0410C0E5
:103180009091CF048091CE04981770F5E091CF0410
:1031900081E08E0F8093CF04F0E0E255FB4F8081F9
:1031A0008093BB0085EC86C08093D0048EC0E091F4
:1031B000CF0481E08E0F8093CF048091BB00F0E0BC
:1031C000E255FB4F80839091CF048091CE046EC076
:1031D000E091CF0481E08E0F8093CF048091BB00FB
:1031E000F0E0E255FB4F80838091D10481116DC0E6
:1031F00081E08093AC0484EA61C083E08093D204D0
:1032000010925C04CFCF80915C04803208F051C0F2
:10321000E0915C0481E08E0F80935C048091BB00A0
:10322000F0E0E45CFB4F8083BDCF85EC8093BC0075
:103230001092D20480915C04803230F4E0915C04FE
:10324000F0E0E45CFB4F108260915C0470E0E09180
:103250003A04F0913B048CE394E0099510925C04ED
:1032600036C084E08093D20410923904109238045E
:10327000E0913604F091370409958091380481116A
:1032800005C081E08093380410921604E09139045F
:1032900081E08E0F80933904F0E0EA5EFB4F80817D
:1032A0008093BB009091390480913804981708F4FA
:1032B00079CF85E88093BC000AC085EC8093BC0080
:1032C0001092D20404C01092D0040E947514FF9191
:1032D000EF91BF91AF919F918F917F916F915F918E
:1032E0004F913F912F910F900FBE0F901F90189507
:1032F000EF92FF920F931F93CF93DF9300D0CDB740
:10330000DEB7142F91E09093D3048093F5041092CC
:10331000D4041092F60486EB95E029833A830E9448
:1033200003152981022FE22E3A81F32E8E2D801B68
:10333000811740F4F70161917F0186EB95E00E94CF
:103340000315F4CF0E942D1A91E0811190E0892F8E
:103350000F900F90DF91CF911F910F91FF90EF9001
:103360000895CF93DF931F92CDB7DEB749839E01B7
:103370002F5F3F4F41E00E9478190F90DF91CF916E
:103380000895BF92CF92DF92EF92FF920F931F9317
:10339000CF93DF931F92CDB7DEB7F82EE62EC42E63
:1033A000B22ED02E08EE13E09E012F5F3F4F41E07A
:1033B0000E94160C882321F1EC2DF0E0EB19F109A5
:1033C000319621E030E002C0220F331FBA94E2F7B9
:1033D000215031090E2E01C0220F0A94EAF78D2DDB
:1033E00001C0880FEA95EAF7422F40959981492359
:1033F0002823422B49836E2D8F2D0E94B11901C0C5
:1034000080E00F90DF91CF911F910F91FF90EF908F
:10341000DF90CF90BF9008958091F7042091170519
:1034200030E0215031096091180591E0492F50E0BA
:10343000421753075CF4FA01E950FB4F40816A30B0
:1034400011F4840F01C084279F5FF0CF6A3011F020
:1034500095E501C090E0890F08952091F6049091C0
:10346000F504213208F04AC08091D2048111FCCFCA
:1034700032E03093D20431E03093D1043FEF309307
:10348000D0041092CF042093CE04A5EDB4E04EEA10
:1034900054E0FA013E2F341B321718F43D9131935A
:1034A000F9CF1092AD042091AD04990F922B909317
:1034B000AD049091AC04913061F41092AC04909101
:1034C000AD049093BB009091BC0093FDF8CF95ECB8
:1034D00001C095EE9093BC009091D2049230E1F33C
:1034E0009091D0049F3F79F08091D004803241F0D8
:1034F0008091D004803331F084E005C081E003C0C6
:1035000082E001C083E01092D4041092F60410927D
:10351000D30408950F931F93CF93DF93CEEDD5E09F
:1035200008EE13E02FED35E041E06AE388810E9468
:10353000160C8981DF91CF911F910F91089521E0A1
:1035400042E06AE68091DE050C941C0D482F6EE681
:103550008091DE050C94B1192F923F924F925F92A9
:103560006F927F928F929F92AF92BF92CF92DF9293
:10357000EF92FF920F931F93CF93DF933C015B0178
:10358000342ED22F202E4F716DE68091DE050E94E1
:10359000B1198D2F0E94A61A80E190E00E94C640CA
:1035A0006C01002339F080E190E00E94C640C82FF2
:1035B000492E02C0C0E0412CE12CF12CEA14FB049E
:1035C00008F06EC0C7014096A816B90618F45A2C28
:1035D0005E1802C080E1582E852D90E020E031E099
:1035E0002D1B31092817390714F45D2E5194F3016E
:1035F000EE0DFF1D222059F09C2FAC2FB42D8A2FE9
:10360000891B851530F484918D933196F8CFCE2F98
:103610004F2E2C2F342D452D6FE68091DE050E9414
:103620007819852C912CC114D10429F1432D4F71A7
:103630006DE68091DE050E94B1198D2F0E94A61AB9
:1036400008EE13E09601452D6FE68091DE050E949D
:10365000160CA401B6018C2F942D0E94C242892B16
:1036600051F0C6010E945B41222021F18C2F942D44
:103670000E945B411FC0E80CF91CD50DEA14FB0445
:1036800008F09CCFD11101C03394432D4F716DE6EA
:103690008091DE050E94B1198D2F0E94A61A8ECF4F
:1036A000C6010E945B41222039F08C2F942D0E948C
:1036B0005B4102C080E001C081E0DF91CF911F91AA
:1036C0000F91FF90EF90DF90CF90BF90AF909F90C1
:1036D0008F907F906F905F904F903F902F900895C4
:1036E0000F931F93662351F0462F9C0108EE13E0C1
:1036F00064E78091DE050E94160C02C0FC01108276
:103700001F910F9108950F931F93CF93DF93CEEDE9
:10371000D5E008EE13E02FED35E042E062E7888166
:103720000E94160C898190E0982F88272A81822B8D
:10373000DF91CF911F910F910895EF92FF920F9318
:103740001F93CF93DF931F92CDB7DEB77A01890124
:103750009E012F5F3F4F41E00E94160C882339F0F5
:1037600029812E7730E035952795F70120830F903A
:10377000DF91CF911F910F91FF90EF9008950F93DC
:103780001F93CF93DF938C01C0E0D0E0F801EC0FE2
:10379000FD1F6491662371F0E0911905F0911A05FF
:1037A0000190F081E02D89E195E00995892B11F0D8
:1037B0002196ECCFCE01DF91CF911F910F9108950B
:1037C0008F929F92AF92BF920F931F93CF93DF93ED
:1037D000CDB7DEB7A1970FB6F894DEBF0FBECDBF51
:1037E00019A2423008F44AE08E010F5D1F4F842E6B
:1037F000912CA12CB12CA50194010E94D844E62F54
:10380000B901CA0101501109EA3014F4E05D01C0A8
:10381000E95CD801EC93232B242B252B61F7B8010D
:1038200089E195E00E94010CA1960FB6F894DEBFE5
:103830000FBECDBFDF91CF911F910F91BF90AF9081
:103840009F908F900895CF93DF93EA0191E090933A
:10385000D3048093F5041092D4041092F60486EBFE
:1038600095E00E940315698186EB95E00E9403159F
:10387000688186EB95E00E9403150E942D1A91E065
:10388000811190E0892FDF91CF9108954F925F923F
:103890006F927F928F929F92AF92BF92CF92DF9260
:1038A000EF92FF920F931F93CF93DF936B017C01F5
:1038B0008091AA049091AB048F3724E092073CF0EA
:1038C0002091A8043091A9042130310541F488EEFB
:1038D00093E0909308018093070161E009C0909301
:1038E00008018093070161E08DE00E94071660E007
:1038F0008CE00E9407162091070130910801C90150
:10390000A0E0B0E09C01AD01285E334041095109BF
:10391000CFEFD3E0AFEFB3E00E948E4448EE842EA9
:1039200043E0942EA12CB12CA50194010E946F4478
:10393000522E432E2091090130910A01C901A0E0C5
:10394000B0E09C01AD01285E334041095109AFEF61
:10395000B3E00E948E44A50194010E946F448E0141
:10396000021B130B20910B0130910C01C901A0E047
:10397000B0E09C01AD01285E334041095109AFEF31
:10398000B3E00E948E44A50194010E946F44722E00
:10399000632E80910D0190910E01A0E0B0E09C019A
:1039A000AD01285E334041095109AFEFB3E00E94F9
:1039B0008E44A50194010E946F44CE01821B930B9B
:1039C0009C0181E040910F0150911001453A564011
:1039D00008F480E04091110150911201453A56409F
:1039E00010F490E001C092E0892B409113015091B6
:1039F0001401453A564010F4D0E001C0D4E0B82E8E
:103A0000BD2A8091150190911601853A964010F4D7
:103A1000D0E001C0D0E44092F7045092F804109333
:103A2000F9040093FA046092FB047092FC04309352
:103A3000FD042093FE042091170130911801C90163
:103A4000A0E0B0E09C01AD01285E3340410951097E
:103A5000A8ECB0E00E948E4428EE422E23E0522EC5
:103A6000612C712CA30192010E946F442093FF04EA
:103A70002091190130911A01C901A0E0B0E09C0128
:103A8000AD01285E334041095109A8ECB0E00E9425
:103A90008E44A30192010E946F442093000540913F
:103AA0001B0150911C0160E070E09A01AB01285E9F
:103AB000334041095109A8ECB0E00E948E44A301B3
:103AC00092010E946F442093010584E680930205D1
:103AD000DB29D093030532E0CC0CDD1CEE1CFF1C6F
:103AE0003A95D1F7C092040510920505109206058B
:103AF000DF91CF911F910F91FF90EF90DF90CF90CA
:103B0000BF90AF909F908F907F906F905F904F90FD
:103B10000895EF92FF920F931F93CF93DF9300D0FE
:103B2000CDB7DEB7E6E0F0E03197F1F75E9880625E
:103B300069837A830E94640D6981E62E7A81F72E6B
:103B400087010B5F1F4FF70181917F010E94640D78
:103B5000E016F106C1F75E9A86E090E00197F1F772
:103B60000F900F90DF91CF911F910F91FF90EF90E9
:103B700008956F927F928F929F92AF92BF92CF9251
:103B8000DF92EF92FF920F931F93CF93DF93CDB706
:103B9000DEB7A0970FB6F894DEBF0FBECDBF782E6C
:103BA00000912006043020F485E5898391E001C06E
:103BB00090E0A02EB12CD501A55EB94F63E272E072
:103BC000392F361B232F260FF6E0AB31BF0771F0DC
:103BD000FB018191BF0141E050E04C0F5D1F420F9E
:103BE000511D2E918227FA018083ECCF192F100FDF
:103BF000E7EF8E2EE4E09E2EE72CF12CC12CD12C89
:103C0000612E6C0CCE14DF04B9F0F40181914F01E8
:103C10000E947C0FA1E0B0E0AC0FBD1FA60DB11D4E
:103C2000F601EA0DFB1DED5DFD4F908189278C9318
:103C3000FFEFCF1ADF0AE4CF612F670D8091A70451
:103C40008823E9F121E0043008F020E082ED95EBD3
:103C50002617C8F4E1E0F0E0EC0FFD1FE20FF11DC4
:103C60003081932738E0AC01440F551F97FF06C001
:103C7000CA0171E2872770E1972701C0CA0131505C
:103C800091F72F5FE5CFF501EE0DFF1DEE0FFF1F42
:103C9000EB51FE4F2081318182279327E1E0F0E054
:103CA000EC0FFD1FE60FF11D908391E0960FE1E010
:103CB000F0E0EC0FFD1FE90FF11D6E5F8083CE0178
:103CC00001960E94880DA0960FB6F894DEBF0FBE35
:103CD000CDBFDF91CF911F910F91FF90EF90DF90BB
:103CE000CF90BF90AF909F908F907F906F900895EE
:103CF0005E9880E50E94640D83E70E94640D5E9AE1
:103D000081E008950F931F93CF93DF9300D000D0ED
:103D10001F92CDB7DEB78C0195E0E6EEF1E0DE0153
:103D2000119601900D929A95E1F785E08093200617
:103D300063E083E00E94BA0DBE016F5F7F4F80E1B8
:103D40000E94891D95E0F801ABE1B6E001900D926B
:103D50009A95E1F70F900F900F900F900F90DF91D1
:103D6000CF911F910F910895CF93DF9300D000D092
:103D70001F92CDB7DEB79C0185E0F901DE011196F7
:103D800001900D928A95E1F795E0F901A6E1B6E080
:103D900001900D929A95E1F746E156E0E0912006F8
:103DA000F0E0ED5DFD4F9E012F5F3F4FB2E0E3324B
:103DB000FB0749F0DA018D91AD0192918927D90174
:103DC0008D939D01F3CF63E083E00E94BA0DBE01A5
:103DD0006F5F7F4F8AE00E94891D0F900F900F90B8
:103DE0000F900F90DF91CF9108956091A6046660C7
:103DF0006093A60486E00C94BA0DDF92EF92FF92D6
:103E00000F931F93CF93DF93E82E5E9881E60E9475
:103E1000640DC7EFD4E08E01DC2E802F8C1B8E1535
:103E200030F40E94560DF80181938F01F6CF5E9A0F
:103E30000091200610E00D5D1D4F8C2F8D198E1501
:103E400060F488810E947C0FF82EF80181918F0127
:103E50000E947C0F8F258993F0CF81E0DF91CF9175
:103E60001F910F91FF90EF90DF900895FC018091DA
:103E7000F5059091F605892B21F421E0309749F45E
:103E800013C08091F1059091F205309731F421E053
:103E9000FC018081882341F006C0BF010E94DF42FF
:103EA00021E0892B09F020E0822F08959C01FC017C
:103EB00070E0CF01821B930B8617970794F48191D2
:103EC000582798E0DA01AA0FBB1F57FF06C0AD01C3
:103ED00081E2482780E1582701C0AD01915091F758
:103EE000E8CFCA0108958F929F92AF92BF92EF924E
:103EF000FF920F931F93CF93DF93CDB7DEB7279732
:103F00000FB6F894DEBF0FBECDBFE82E8823E9F0D0
:103F100080E28093F70485E18093F80485E0809344
:103F2000F90486E08093FA04909128019093FB04B1
:103F3000209129012093FC0480912A018093FD04A3
:103F4000920F890F8093FE0485C100915B0681E08A
:103F5000003908F480E0602F20E7829F600D112473
:103F60009CED960F9432A8F16D36C8F020911501A2
:103F700030911601C901A0E0B0E09C01AD01285EBE
:103F8000334041095109ADE3B0E00E948E4428EE70
:103F900033E040E050E00E946F4412E818C02091E6
:103FA0001B0130911C01C901A0E0B0E09C01AD01F2
:103FB000285E334041095109ADE3B0E00E948E44D0
:103FC00028EE33E040E050E00E946F4412E4120F0C
:103FD00001C010E28091AA049091AB048F37A4E055
:103FE0009A073CF02091A8043091A90421303105B2
:103FF00041F488EE93E0909308018093070161E01B
:1040000009C0909308018093070161E08DE00E9450
:10401000071660E08CE00E94071686E00E94DE151D
:10402000892B69F480912601909127010197909343
:10403000270180932601909316018093150184E057
:104040000E94DE15892B69F4809126019091270149
:1040500001969093270180932601909316018093F7
:10406000150185E00E94DE15892B79F480912401E9
:10407000909125019C012150310930932501209315
:10408000240190931C0180931B0183E00E94DE15A4
:10409000892B79F480912401909125019C012F5F57
:1040A0003F4F309325012093240190931C0180936E
:1040B0001B014091150150911601483EB3E05B078A
:1040C00038F0413DE7E05E0728F040ED57E002C0E0
:1040D00048EE53E0509316014093150140911B01A7
:1040E00050911C01483EF3E05F0738F0413D27E066
:1040F000520728F040ED57E002C048EE53E05093DD
:104100001C0140931B012091070130910801C90156
:10411000A0E0B0E09C01AD01285E334041095109A7
:10412000A4E6B0E00E948E4428EE822E23E0922E78
:10413000A12CB12CA50194010E946F442093F70497
:1041400020910D0130910E01C901A0E0B0E09C0169
:10415000AD01285E334041095109A4E6B0E00E9458
:104160008E44A50194010E946F442093F80440916D
:104170000B0150910C0160E070E09A01AB01285EE8
:10418000334041095109A4E6B0E00E948E44A501E4
:1041900094010E946F442093F90420910901309109
:1041A0000A01C901A0E0B0E09C01AD01205D3740EB
:1041B00041095109ACE9BFEF0E949C4428E13CEF62
:1041C0004FEF5FEF0E946F44DA01C9018C599F4F96
:1041D000AF4FBF4F8093FA041093FB0480911101FD
:1041E00090911201853A964010F430E001C030E819
:1041F0008091170190911801853A964010F490E053
:1042000001C094E04091190150911A014431554088
:1042100010F080E001C080E421E040910F01509156
:104220001001453A564008F420E0232B922B892BAD
:104230008093FC041092FD04E7EFF4E080E091919C
:10424000890F24E0EE3FF207D1F78093FE040F5F61
:1042500000935B06F0905A06EE2019F0EFE1F1E0D2
:1042600002C0E8E2F1E00F2D037010E0000F111F13
:104270000064CE01019627E0DC011D922A95E9F742
:104280000F834081242F220F2E83218130E0B9013A
:10429000660F771F441F4427441F462B4D834281DE
:1042A00050E0BA01660F771F220F232F221F330B16
:1042B000262B2C83238130E0B901660F771F440F32
:1042C000452F441F550B462B4B83448150E0BA01C8
:1042D000660F771F220F232F221F330B262B2A83D3
:1042E000440F452F441F550B498348E15CE367E0C9
:1042F0000E94561FAC0168E087EF94E00E94561FB1
:1043000048E752E0B7EFAB2EB4E0BB2ED50138E062
:104310003A0DFA012191AF016C9126272D933A13A2
:10432000F8CF2CE7922721EF822716950795009367
:104330003A062091F70430E03595279520933B0607
:10434000ACE3B6E040E0F50131915F012081522FEE
:104350005695F0E83F9F90011124252B2D934F5F38
:10436000473089F79C018091FE04879588278795BF
:10437000932F9695892B80934306C901969587952F
:10438000809344062795222727952093450662E0CF
:1043900080E00E94BA0DEF2DF0E0EA56FD4F6081FB
:1043A00085E00E94BA0D81E08F0D837080935A06DC
:1043B00060E787E00E94BA0D0E94B70D6CE08AE3C7
:1043C00096E00E94880D6CE08AE396E00E94880DDA
:1043D0006CE08AE396E00E94880D27960FB6F89469
:1043E000DEBF0FBECDBFDF91CF911F910F91FF9028
:1043F000EF90BF90AF909F908F900895CF92DF92F3
:10440000EF92FF921F93CF93DF93182F882329F108
:1044100084EA8093F70485E0E3E3F6E0A8EFB4E0F4
:1044200001900D928A95E1F780912F0690913006C8
:10443000A0913106B09132068093FD049093FE0462
:10444000A093FF04B09300058091FA0280930105C8
:104450008091FB0280930205A9C08091AA049091EB
:10446000AB0461E08F37944054F08091A8049091A0
:10447000A904019721F08DE00E94071660E08CE00E
:104480000E940716C091AA04D091AB04D0930801F2
:10449000C093070185EA8093F7048AEF8093F804BC
:1044A0002091090130910A01C901A0E0B0E09C010E
:1044B000AD01285E334041095109AFEFB0E00E94E1
:1044C0008E4428EEC22E23E0D22EE12CF12CA7013F
:1044D00096010E946F442093FC0420910B013091BF
:1044E0000C01C901A0E0B0E09C01AD01285E3340A1
:1044F00041095109AFEFB0E00E948E44A701960137
:104500000E946F442093FD04AE0160E070E09A01C8
:10451000AB01285E334041095109AFEFB0E00E9482
:104520008E44A70196010E946F442093FE042091BF
:104530000D0130910E01C901A0E0B0E09C01AD0178
:10454000285E334041095109AFEFB0E00E948E442C
:10455000A70196010E946F442093FF048CE10E9402
:104560007316BC01990F880B990BCC24CA9433E0C5
:10457000D32EE12CF12CA70196010E946F442093C9
:10458000FA048091ED028093FB048091EB0280930A
:1045900003058BE10E947316BC01990F880B990BE0
:1045A000A70196010E946F44209304058091F704AF
:1045B000E8EFF4E09DE09E0F2191820F9E13FCCF67
:1045C000809305050E94D10D8EE00E94720F11119B
:1045D0000BC0E091390681E08E0F80933906F0E040
:1045E000E15DF94F608101C060E085E00E94BA0D95
:1045F0008091390683708093390660E787E00E94D6
:10460000BA0D0E94B70D8FE0DF91CF911F91FF90FF
:10461000EF90DF90CF900C94B91DCF93C82F2091CD
:10462000AA043091AB042F3744E0340734F0809172
:10463000A8049091A904019741F488EE93E0909327
:1046400008018093070161E009C0309308012093BD
:10465000070161E08DE00E94071660E08CE00E9497
:10466000071650911805523011F494E001C090E003
:10467000C093F70480912B068093F80480912C0658
:104680008093F90480912D068093FA0480912E0680
:104690008093FB04892F90E06091090170910A01D9
:1046A000FC01E950FB4F48EB242F261B258328EB08
:1046B0003BE0D901A61BB70BBD01768360910B01CE
:1046C00070910C01461B4783261B370B30873091B6
:1046D0000701209108013187228730910D01209137
:1046E0000E013387DC011C96A950BB4F2C936091BF
:1046F000110170911201653A764010F020612C93FF
:1047000020910F0130911001253A46E0340710F056
:1047100022E006C02431354010F4158602C021E0A5
:10472000258716865230E1F420911301309114014F
:10473000243A364038F4FC013D96E950FB4F208185
:10474000206120832091150130911601253A3640D1
:1047500038F00D96FC01E950FB4F80818860808322
:1047600080912A06CF910C94B91DCF92DF92EF92DF
:10477000FF92CF93C82F882359F18091180580317B
:1047800011F483EA01C084EA8093F70485E0E5E24E
:10479000F6E0A8EFB4E001900D928A95E1F78091E0
:1047A000210690912206A0912306B09124068093C1
:1047B000FD049093FE04A093FF04B0930005809144
:1047C000FA02809301058091FB0280930205EBC001
:1047D0008091AA049091AB048F3724E092073CF0BB
:1047E0002091A8043091A9042130310541F488EECC
:1047F00093E0909308018093070161E009C09093D2
:1048000008018093070161E08DE00E94071660E0D7
:104810008CE00E94071685EA8093F7048AEF809364
:10482000F8048091110190911201853A964010F49C
:1048300090E001C098E02091170130911801253ACD
:10484000364010F420E001C022E081E040911901DF
:1048500050911A01453A564008F480E0892B822B8A
:104860002091130130911401253A364010F490E064
:1048700001C090E2982B2091150130911601253A44
:10488000364010F480E001C080E1892B8093F90468
:1048900080910F0190911001853A964010F480E0CC
:1048A00001C080E88093FA042091090130910A0147
:1048B000C901A0E0B0E09C01AD01285E3340410990
:1048C0005109AFEFB3E00E948E4428EEC22E23E0E0
:1048D000D22EE12CF12CA70196010E946F44C90150
:1048E00096958795969587958C7F830F8093FB048B
:1048F0002093FC0420910B0130910C01C901A0E030
:10490000B0E09C01AD01285E334041095109AFEF91
:10491000B3E00E948E44A70196010E946F44C90132
:1049200096958795969587958C7F830F8093FD0448
:104930002093FE042091070130910801C901A0E0F5
:10494000B0E09C01AD01285E334041095109AFEF51
:10495000B3E00E948E44A70196010E946F44345830
:104960003093FF042093000540910D0150910E01FA
:1049700060E070E09A01AB01285E334041095109C3
:10498000AFEFB3E00E948E44A70196010E946F44EE
:10499000C90196958795969587958C7F830F80930F
:1049A0000105209302058091FC02809303058AE0B3
:1049B000809304058091F704E8EFF4E09DE09E0FFA
:1049C0002191820F9E13FCCF809305050E94D10D8B
:1049D0008EE00E94720FC1110BC0E091380681E099
:1049E0008E0F80933806F0E0EF5DF94F608101C0D3
:1049F00060E085E00E94BA0D809138068370809354
:104A0000380660E787E00E94BA0D0E94B70D8FE07C
:104A10000E94B91D80911805803189F480E893E0E7
:104A20000197F1F782E090E00E94F70D63E080E0EB
:104A3000CF91FF90EF90DF90CF900C94BA0DCF9173
:104A4000FF90EF90DF90CF900895E82FF0E0EE0F09
:104A5000FF1FE95FFE4F20813181C901A0E0B0E076
:104A60009C01AD01285E334041095109AFEFB0E030
:104A70000E948E4428EE33E040E050E00E946F44F4
:104A800027FD03C08FE7821B0895822F08958F9220
:104A90009F92AF92BF92FF920F931F93CF93DF939A
:104AA000182F8091AA049091AB048F3724E09207CD
:104AB0003CF02091A8043091A9042130310541F443
:104AC00088EE93E0909308018093070161E009C0AC
:104AD000909308018093070161E08DE00E94071622
:104AE00060E08CE00E9407162091070130910801D8
:104AF000C901A0E0B0E09C01AD01285E334041094E
:104B00005109AFEFB0E00E948E4428EE33E040E060
:104B100050E00E946F44F22E2093F70483E00E943D
:104B200025258093F80480E48093FB0482E00E94B2
:104B300025258093F904C0911701D0911801C53A39
:104B400036E0D30768F4482F50E087FF02C09A018F
:104B500004C02FE730E0241B350B3595279501C0A5
:104B600020E42093FC0481E00E9425258093FA0430
:104B7000C53A46E0D40768F4482F50E087FF02C0EA
:104B80009A0104C02FE730E0241B350B359527959B
:104B900001C020E42093FD04809169068093FE0407
:104BA00080916A068093FF0480916B0680930005D4
:104BB000109201051092020510920305109204054F
:104BC00080EC8093050500916806013009F48FC0E0
:104BD00008F44EC0033021F0043009F0BBC048C0D7
:104BE00080916D068F5F80936D0640911B015091FF
:104BF0001C0160E070E04A015B0194E1891A95E0D4
:104C0000990AA108B10821E9821621E09206A104BF
:104C1000B10448F084FF07C04C3D55406105710563
:104C200024F094E003C090E001C098E040911D01A1
:104C300050911E0160E070E04A015B0124E1821A9C
:104C400025E0920AA108B10831E9831631E0930604
:104C5000A104B10458F084FF09C04C3D55406105E2
:104C6000710514F080E101C080E2980F9093010576
:104C7000909101052091190130911A01253A364091
:104C800010F420E001C022E081E0C53AD64008F4EB
:104C900080E0822B890F80930105111195C08091CE
:104CA000110190911201853A964010F484E001C000
:104CB00085E02091130130911401253A364010F41B
:104CC00090E001C098E0892B2091150130911601E8
:104CD000253A364010F490E001C090E1982B2091E5
:104CE0000F01309110012431354090F167C080915F
:104CF0000F01909110018431954010F080E001C0C7
:104D000082E08093010581E02091190130911A0120
:104D1000253A364008F480E080930205111154C012
:104D20008091110190911201853A964010F482E031
:104D300001C086E020911B0130911C01253A3640CC
:104D400010F490E001C090E1982BC53AD640B0F144
:104D500080E237C080910F0190911001843195401D
:104D600010F090E101C092E181E020911B013091AF
:104D70001C01253A364008F480E0892B8093010518
:104D8000111122C08091110190911201853A964033
:104D900010F482E001C086E02091130130911401EB
:104DA000253A364010F490E001C098E0982B20910D
:104DB000150130911601253A364010F480E001C00B
:104DC00080E1892B80930505E8EFF4E08191F80EEE
:104DD00095E0E630F907D1F7F0920605033019F4B3
:104DE0000E94D10D03C08EE00E94720FC0916E062A
:104DF000EC2FE695F0E0EC59F94F608185E00E94D8
:104E0000BA0DCF5FC770C0936E0660E787E00E945F
:104E1000BA0D0E94B70D033071F460E187EF94E0A2
:104E2000DF91CF911F910F91FF90BF90AF909F9016
:104E30008F900C94880D80E1DF91CF911F910F919D
:104E4000FF90BF90AF909F908F900C94B91DCF9220
:104E5000DF92EF92FF921F93CF93DF93C82F809141
:104E6000AA049091AB048F3724E092073CF0209184
:104E7000A8043091A9042130310541F488EE93E073
:104E8000909308018093070161E009C090930801A5
:104E90008093070161E08DE00E94071660E08CE0DE
:104EA0000E94071683E18093F70480916006909139
:104EB0006106A0916206B09163068093F804909316
:104EC000F904A093FA04B093FB04909161068091D9
:104ED0006006890F90916206890F90916306890F91
:104EE0008093FF048AE0E0E0F5E0DF011D928A95FF
:104EF000E9F7CC2341F01092FC041092FD0481E00C
:104F00008093FE04D6C080916C068093FC0488E0F8
:104F10008093FD0483E08093FE042091070130918B
:104F20000801C901A0E0B0E09C01AD01285E33405A
:104F300041095109AFEFB0E00E948E4428EE33E002
:104F400040E050E00E946F44D22F209300058091F2
:104F50000D0190910E01AC0160E070E09A01AB018F
:104F60002C5D3540410951098C3D954068F0ACE31A
:104F7000B0E00E948E4424EF31E040E050E00E9417
:104F80006F442093010512C0ACE3B0E00E948E4450
:104F90002CE03EEF4FEF5FEF0E946F44DA01C90152
:104FA00080589F4FAF4FBF4F8093010520910B0159
:104FB00030910C01C901A0E0B0E09C01AD01285E78
:104FC000334041095109A8E7B0E00E948E4428EE21
:104FD000C22E23E0D22EE12CF12CA70196010E94D3
:104FE0006F44DA01C9018D5B9F4FAF4FBF4F182F40
:104FF000809302054091090150910A0160E070E040
:105000009A01AB01285E334041095109A8E8BFEF7E
:105010000E949C44A70196010E946F44DA01C901D5
:1050200085549F4FAF4FBF4F682F8093030580E299
:1050300080930405809305058093060580930705FA
:1050400080910F0190911001853A964010F494E000
:1050500001C09CE081E02091110130911201253ABC
:10506000364008F480E0892B209117013091180117
:10507000253A364010F490E001C090E1982B209141
:10508000190130911A01253A364010F480E001C030
:1050900080E2892B80930805D1110BC08091010516
:1050A000863B38F01A3428F4653B18F080E2809390
:1050B000090580910005E1E0F5E09191890FB5E0E7
:1050C000EA30FB07D1F780930A058EE00E94720F49
:1050D000CC2319F060915C060AC0E0916C0681E077
:1050E0008E0F80936C06F0E0E45AF94F608185E002
:1050F0000E94BA0D80916C06837080936C0660E705
:1051000087E00E94BA0D0E94B70D84E1DF91CF9134
:105110001F91FF90EF90DF90CF900C94B91DCF932B
:10512000DF93CDB7DEB7C35BD1090FB6F894DEBF0E
:105130000FBECDBF789484B5826084BD84B5816094
:1051400084BD85B5826085BD85B5816085BD809152
:105150006E00816080936E001092810080918100CA
:1051600082608093810080918100816080938100C2
:10517000809180008160809380008091B100846084
:105180008093B1008091B00081608093B0008091E5
:105190007A00846080937A0080917A0082608093A4
:1051A0007A0080917A008E7F80937A0080917A00D5
:1051B000806880937A001092C100E0912905F091F7
:1051C0002A0582E08083E0912505F0912605108272
:1051D000E0912705F091280587E68083109231053C
:1051E000E0912D05F0912E0586E08083E0912B055E
:1051F000F0912C05808180618083E0912B05F091F6
:105200002C05808188608083E0912B05F0912C052E
:10521000808180688083E0912B05F0912C0580814E
:105220008F7D808310921206109211061092100644
:1052300010920F0610920E0610920D068DEC90E063
:10524000909314068093130690910306903208F011
:105250006EC025E530E030930E0620930D062BEC52
:1052600030E03093100620930F0620E930E03093B1
:105270001206209311062091680088EE890F88306D
:1052800040F0983040F080EF890F883030F088E0AF
:1052900005C081E003C082E001C084E0822B8093DE
:1052A000680088EE890F883068F0983070F020EF41
:1052B000290F283068F028EF290F283060F020E00F
:1052C00030E00BC02BE630E008C02CE630E005C033
:1052D0002DE630E002C023E730E030930B06209348
:1052E0000A06883050F42FE130E0291B310981E0B3
:1052F00001C0880F2A95EAF712C0983048F080EF75
:10530000890F883020F088EF890F883038F4982F83
:1053100081E001C0880F9A95EAF701C081E080938F
:105320000C0680911306909114060197F1F7809175
:10533000110690911206892B21F18091E60290913D
:10534000E70225E0873F9207E1F0009711F00E9405
:105350003418809115068E7F809315061092E50211
:105360001092E40287EF95E09093E7028093E602C3
:10537000E0910A06F0910B06908180910C06892B32
:1053800080836AE972E087EF95E00E94010C8BE16F
:105390000E9473168C018AE10E94731625E0880F23
:1053A000991F2A95E1F70F711127BC01602B712B12
:1053B000072E000C880B990B61157105810591056D
:1053C00011F00E94424361E085E00E94371661E0DF
:1053D00087E00E94371661E08EE00E94371661E098
:1053E00083E00E94371660E086E00E943716109234
:1053F000E9021092E8021092D4041092F60410927E
:10540000D20481E08093D1041092AC0461E081E188
:105410000E94071661E080E10E9407168091B900A2
:105420008E7F8093B9008091B9008D7F8093B90001
:1054300080E28093B80085E48093BC0082E0809392
:10544000B80001E023E042E06BE68091DE050E94B7
:10545000C11900E022E044E06BE18091DE050E948A
:10546000C11922E044E06CE18091DE050E94C1197F
:1054700020E046E06BE68091DE050E941C0D60E0B6
:1054800082E00E94371621E047E06BE68091DE055E
:105490000E941C0D6EE170E080E090E00E94B51665
:1054A00020E046E06BE68091DE050E941C0D40E79F
:1054B0006DE68091DE050E94B11986E00E94A61A71
:1054C00040E06DE68091DE050E94B11928EE33E0E0
:1054D0004FED55E060E08091DE050E949D1B8090BD
:1054E000DF0528EE33E04FED55E061E08091DE0509
:1054F0000E949D1B9090DF0528EE33E04FED55E0B4
:1055000062E08091DE050E949D1BA090DF054FE7C1
:1055100065E28091DE050E94B11920E045E06AE66F
:105520008091DE050E941C0D48E665E28091DE0553
:105530000E94B11921E041E06AE68091DE050E94F7
:105540001C0D64E170E080E090E00E94B51601E07F
:1055500020E040E069E877E08DED91E00E94AC1A30
:10556000882309F4CDC288E090E00E94C640B82E9E
:10557000192FE12CF12CF701E35EFE4F4491F70166
:10558000E25EFE4F2491670133E0C30ED11CF701A8
:10559000E15EFE4FE491EE23D1F1EE2EF12CE330EB
:1055A000D8F0B7018B2D912FCD54DF4F2883C35BEB
:1055B000D040CE54DF4F4883C25BD0400E94F341BD
:1055C000B82E192FCE54DF4F4881C25BD040CD5446
:1055D000DF4F2881C35BD040AB2DB12F80E090E03E
:1055E0008E159F0548F4F601E80FF91FE35EFE4FA4
:1055F000E491ED930196F4CF00E0B7018B2D912F4C
:105600000E94AC1AEC0CFD1C811117C010C044E0C4
:10561000E40EF11CF601E35EFE4FE491E13039F453
:1056200042E368E38091DE050E94B11906C08B2D2C
:10563000912F0E945B4112E064C250ECE516F10428
:1056400008F499CF8B2D912F0E945B4103E023E05A
:1056500042E06BE68091DE050E94C11942E168E3F9
:105660008091DE050E94B11944E069E18091DE0578
:105670000E94B11901E023E045E06AE18091DE0576
:105680000E94C11903E023E042E06AE18091DE0557
:105690000E94C11922E044E06BE18091DE050E9486
:1056A000C11943E060E78091DE050E94B11940E036
:1056B00061E78091DE050E94B11920E040E060E0E2
:1056C0008091DE050E941C0D082D26E046E060E07A
:1056D0008091DE050E94C119092D26E046E061E0B7
:1056E0008091DE050E94C1190A2D26E046E062E0A5
:1056F0008091DE050E94C119E12CF12CF701E251E5
:10570000FF4FE491A1E8B0E0AC0FBD1FAE0DB11D9D
:10571000EC9381E08E0D9FEFE91AF90AA3E0AE1534
:1057200068F7CD57DF4F6881C358D04070E09B01C8
:105730002E5F3F4F90E02817390704F700E0CE575F
:10574000DF4F2881C258D040CF57DF4F4881C15822
:10575000D04081E890E08C0F9D1F03960E94AC1A08
:1057600080E0F701E251FF4FE491A1E8B0E0AC0F17
:10577000BD1FA80FB11DEC938F5FBFEFEB1AFB0AA3
:10578000843078F3CD57DF4F6881C358D04070E044
:10579000AB014E5F5F4F282F30E0421753070CF7E5
:1057A00000E0CE57DF4F2881C258D040CF57DF4F9F
:1057B0004881C158D04081E890E08C0F9D1F03962E
:1057C0000E94AC1A0E949F1A0E94831B682FCE0170
:1057D00001960E94701B42E06FE18091DE050E94FD
:1057E000B1194CE961E28091DE050E94B11940E5F2
:1057F00060E28091DE050E94B11940E062E2809192
:10580000DE050E94B1190E949F1A21E046E06AE677
:105810008091DE050E941C0D21E047E06AE6809140
:10582000DE050E941C0D21E043E06AE68091DE0562
:105830000E941C0D80E0F701E251FF4FE491A1E8C6
:10584000B0E0AC0FBD1FA80FB11DEC938F5FEFEF61
:10585000EE1AFE0A843078F3CD57DF4F6881C358C3
:10586000D04070E0AB014E5F5F4F282F30E0421711
:1058700053070CF700E0CE57DF4F2881C258D040C5
:10588000CF57DF4F4881C158D04081E890E08C0F5E
:105890009D1F03960E94AC1A80E0F701E251FF4F72
:1058A000E491A1E8B0E0AC0FBD1FA80FB11DEC93CF
:1058B0008F5FFFEFEF1AFF0A843078F3CD57DF4F89
:1058C0006881C358D04070E0AB014E5F5F4F282F16
:1058D00030E0421753070CF700E0CE57DF4F288126
:1058E000C258D040CF57DF4F4881C158D04081E8DF
:1058F00090E08C0F9D1F03960E94AC1A80E0F70188
:10590000E251FF4FE491A1E8B0E0AC0FBD1FA80F3A
:10591000B11DEC938F5F2FEFE21AF20A843078F317
:10592000CD57DF4F6881C358D04070E0AB014E5F68
:105930005F4F282F30E0421753070CF700E0CE5797
:10594000DF4F2881C258D040CF57DF4F4881C15820
:10595000D04081E890E08C0F9D1F03960E94AC1A06
:105960000E94831B83309105D8F3682FCE010196E6
:105970000E94701B80E0F701E251FF4FE491A1E823
:10598000B0E0AC0FBD1FA80FB11DEC938F5F3FEFD0
:10599000E31AF30A843078F3CD57DF4F3880C358C9
:1059A000D040832C912CA4014E5F5F4F282F30E014
:1059B0004217530704F7CE57DF4FB880C258D04084
:1059C000CF57DF4F2880C158D040422D4F716DE630
:1059D0008091DE050E94B1198B2D0E94A61AC12C60
:1059E000D12C612C7724739481E8482E512C4C0ED5
:1059F0005D1E43E0440E511CC814D90498F5C6013D
:105A000040968816990618F4A32CAC1802C010E131
:105A1000A12E8A2D90E093012B19310928173907FF
:105A200014F4AB2CA19492012C0D3D1D08EE13E053
:105A30004A2D6FE68091DE050E94160CCA0CD11C1F
:105A4000BA0CC814D904C0F6B11001C02394422D79
:105A50004F716DE68091DE050E94B1198B2D0E9479
:105A6000A61ACACF0E94831B83309105D8F3682FF2
:105A7000CE0101960E94701BF701E251FF4F80E0BA
:105A80009491A1E8B0E0AC0FBD1FA80FB11D9C938D
:105A90008F5F843010F43196F3CFCD57DF4F68819C
:105AA000C358D04070E0AB014E5F5F4F282F30E00D
:105AB0004217530784F700E0CE57DF4F2881C258C2
:105AC000D040CF57DF4F4881C158D04081E890E0A7
:105AD0008C0F9D1F03960E94AC1A20E047E06AE6F7
